:020000000C945E
:1000020053000C9400000C9400000C9400000C941B
:1000120000000C9400000C9400000C9400000C945E
:1000220000000C9400000C9400000C9400000C944E
:1000320000000C9400000C9400000C9400000C943E
:1000420000000C9400000C9400000C9400000C942E
:1000520000000C9400000C9400000C9400000C941E
:1000620000000C9400000C9400000C9400000C940E
:1000720000000C9400000C9400000C9400000C94FE
:1000820000000C9400000C9400000000C0F9A4B021
:10009200999282F88090020004008C000A00000508
:1000A2008E000000F894EE27ECBBF1E0F5BFE5BF4F
:1000B200E0936C008DE0A2E0BB27ED938A95E9F70F
:1000C20080E090E1A0E0B1E0ED930197E9F7E8E983
:1000D200F0E085919591009761F0A591B591059019
:1000E2001590BF01F00105900D920197E1F7FB0118
:1000F200F0CF8BBFEFEFEDBFE0E1EEBFC0E0D5E0A8
:100102000C94D000BA93AA9322976ED05BD07AD087
:100112005E2F58D08AD08F01D801E4E6F0E072D089
:100122004E2FD801E4E6F0E080D08F01D801EAE05A
:10013200F0E068D0EF83D801EAE0F0E076D0EE8319
:1001420020E030E02A30E0E03E0710F5C09AC19886
:10015200C298C398E52F3BD0C19AC298C398E42FA6
:1001620036D0C198C29AC398EF8131D0C198C29853
:10017200C39AEE81F0E0E050FB4FE081EBBB80EDF3
:1001820097E00197F1F7EFEFEBBB2F5F3F4FDACF2D
:1001920032D02A960895EFEFE7BBEABB0895FBDF62
:1001A200C398C298C198C098F20131962F01D2012A
:1001B200A9DFEFE0F7E2E415F50511F44424552434
:1001C200F3CFFFCFA885B985E8EEF3E00895F0E01C
:1001D200E050FB4FE081EBBB80ED97E00197F1F738
:1001E200EFEFEBBBC09808955A934A933A932A9340
:1001F2001A930A9308955D814C813B812A8119816A
:10020200088108950024112490E1AA0FBB1F001C4D
:10021200111C0E1A1F0A18F40E0E1F1E01C0A16037
:100222009A9599F7FD01D0010895ECDFFD0108953B
:00000001FF
